:020000040000FA
:06000000A1EF09F012005F
:06100000A1EF09F012004F
:021008001200D4
:021018001200C4
:02102A000000C4
:04102C00D9CFE6FF33
:10103000E1CFD9FF170EE126D9CFE9FFDACFEAFFDA
:10104000570EEE6E6F0EEE6E720EEE6E6C0EEE6E54
:10105000640EEE6E200EEE6E630EEE6E750EEE6E8C
:10106000700EEE6E200EEE6E770EEE6E690EEE6E68
:101070006E0EEE6EEE6E650EEE6E720EEE6EEE6A39
:10108000D950110FE96EDACFEAFF690EEE6E6E0EDF
:10109000EE6E640EEE6E690EEE6E610EEE6EEE6A30
:1010A000F19E0F0EC16E956A966A62D80F0EE66EBB
:1010B000E66A23D8E552E552D9CF6AF0DACF6BF071
:1010C000AAD80F0EE66EE66A18D8E552E552CD0EA4
:1010D000E66E77D8E5520001D950110F6A6FDACF6A
:1010E0006BF099D8FFD7170EE15C02E2E16AE55296
:1010F000E16EE552E7CFD9FF1200D9CFE6FFE1CF8D
:10110000D9FF040EE126DE6ADD6ADECF00F0DDCF16
:1011100001F0FD0EDBCF02F0FE0EDBCF03F002503C
:10112000005C035001581AE2020EDB6A030EDB6A10
:10113000020EDBCF00F0030EDBCF01F0C60E005C29
:10114000020E015806E2020EDB2A030E01E3DB2A3F
:10115000EFD7DF2A010E01E3DB2AD7D7040EE15CCB
:1011600002E2E16AE552E16EE552E7CFD9FF1200F3
:10117000380EE66E26D8E5520F0EE66EE66ABDDF43
:10118000E552E552010EE66E1CD8E5520F0EE66EF2
:10119000E66AB3DFE552E5520E0EE66E12D8E5526E
:1011A0000F0EE66EE66AA9DFE552E552800EE66EA6
:1011B00008D8E5520F0EE66EE66A9FDFE552E5526B
:1011C0001200D9CFE6FFE1CFD9FFFE0EDB50836ED0
:1011D0008490849284840F0EE66EE66A8EDFE55278
:1011E000E5528494E552E7CFD9FF1200D9CFE6FF4C
:1011F000E1CFD9FFFE0EDB50836E8480849284841D
:101200000F0EE66EE66A79DFE552E5528494E55208
:10121000E7CFD9FF1200D9CFE6FFE1CFD9FF020E09
:10122000E126DE6ADD6ADE5000016A250F01E96E03
:10123000DD5000016B210F01EA6EEF5019E0DE5026
:1012400000016A250F01E96EDD5000016B210F01DD
:10125000EA6EEF50E66ECADFE5520F0EE66EE66A02
:101260004CDFE552E552DF2A010E01E3DB2ADBD732
:10127000020EE15C02E2E16AE552E16EE552E7CF7F
:04128000D9FF120080
:0C1284002A0EF66E100EF76E000EF86ECB
:1012900000010900F550656F0900F550666F03E124
:1012A000656701D03DD00900F550606F0900F55029
:1012B000616F0900F550626F09000900F550E96E91
:1012C0000900F550EA6E090009000900F550636F46
:1012D0000900F550646F09000900F6CF67F0F7CFF9
:1012E00068F0F8CF69F060C0F6FF61C0F7FF62C038
:1012F000F8FF0001635302E1645307E00900F55071
:10130000EE6E6307F8E26407F9D767C0F6FF68C0BE
:10131000F7FF69C0F8FF00016507000E665BBFD7E5
:021320001200B9
:0E132200000EF36E00EE00F0080E01D812006F
:10133000EA6002D0EE6AFCD7F350E9601200EE6A70
:02134000FCD7D8
:0E13420013EE00F023EE00F0F86A059C42EC7A
:0E13500009F0AFEC09F016EC08F0FBD7120024
:02135E0012007B
:00000001FF
